{
  "_format": "hh-sol-artifact-1",
  "contractName": "MyERC20MintableByAnyone",
  "sourceName": "contracts/MyERC20MintableByAnyone.sol",
  "abi": [
    {
      "inputs": [
        {
          "internalType": "string",
          "name": "name",
          "type": "string"
        },
        {
          "internalType": "string",
          "name": "symbol",
          "type": "string"
        }
      ],
      "stateMutability": "nonpayable",
      "type": "constructor"
    },
    {
      "anonymous": false,
      "inputs": [
        {
          "indexed": true,
          "internalType": "address",
          "name": "owner",
          "type": "address"
        },
        {
          "indexed": true,
          "internalType": "address",
          "name": "spender",
          "type": "address"
        },
        {
          "indexed": false,
          "internalType": "uint256",
          "name": "value",
          "type": "uint256"
        }
      ],
      "name": "Approval",
      "type": "event"
    },
    {
      "anonymous": false,
      "inputs": [
        {
          "indexed": true,
          "internalType": "address",
          "name": "previousOwner",
          "type": "address"
        },
        {
          "indexed": true,
          "internalType": "address",
          "name": "newOwner",
          "type": "address"
        }
      ],
      "name": "OwnershipTransferred",
      "type": "event"
    },
    {
      "anonymous": false,
      "inputs": [
        {
          "indexed": false,
          "internalType": "address",
          "name": "account",
          "type": "address"
        }
      ],
      "name": "Paused",
      "type": "event"
    },
    {
      "anonymous": false,
      "inputs": [
        {
          "indexed": true,
          "internalType": "bytes32",
          "name": "role",
          "type": "bytes32"
        },
        {
          "indexed": true,
          "internalType": "bytes32",
          "name": "previousAdminRole",
          "type": "bytes32"
        },
        {
          "indexed": true,
          "internalType": "bytes32",
          "name": "newAdminRole",
          "type": "bytes32"
        }
      ],
      "name": "RoleAdminChanged",
      "type": "event"
    },
    {
      "anonymous": false,
      "inputs": [
        {
          "indexed": true,
          "internalType": "bytes32",
          "name": "role",
          "type": "bytes32"
        },
        {
          "indexed": true,
          "internalType": "address",
          "name": "account",
          "type": "address"
        },
        {
          "indexed": true,
          "internalType": "address",
          "name": "sender",
          "type": "address"
        }
      ],
      "name": "RoleGranted",
      "type": "event"
    },
    {
      "anonymous": false,
      "inputs": [
        {
          "indexed": true,
          "internalType": "bytes32",
          "name": "role",
          "type": "bytes32"
        },
        {
          "indexed": true,
          "internalType": "address",
          "name": "account",
          "type": "address"
        },
        {
          "indexed": true,
          "internalType": "address",
          "name": "sender",
          "type": "address"
        }
      ],
      "name": "RoleRevoked",
      "type": "event"
    },
    {
      "anonymous": false,
      "inputs": [
        {
          "indexed": true,
          "internalType": "address",
          "name": "from",
          "type": "address"
        },
        {
          "indexed": true,
          "internalType": "address",
          "name": "to",
          "type": "address"
        },
        {
          "indexed": false,
          "internalType": "uint256",
          "name": "value",
          "type": "uint256"
        }
      ],
      "name": "Transfer",
      "type": "event"
    },
    {
      "anonymous": false,
      "inputs": [
        {
          "indexed": false,
          "internalType": "address",
          "name": "account",
          "type": "address"
        }
      ],
      "name": "Unpaused",
      "type": "event"
    },
    {
      "inputs": [],
      "name": "CONTROLLER_ROLE",
      "outputs": [
        {
          "internalType": "bytes32",
          "name": "",
          "type": "bytes32"
        }
      ],
      "stateMutability": "view",
      "type": "function"
    },
    {
      "inputs": [],
      "name": "DEFAULT_ADMIN_ROLE",
      "outputs": [
        {
          "internalType": "bytes32",
          "name": "",
          "type": "bytes32"
        }
      ],
      "stateMutability": "view",
      "type": "function"
    },
    {
      "inputs": [],
      "name": "SPENDER_ROLE",
      "outputs": [
        {
          "internalType": "bytes32",
          "name": "",
          "type": "bytes32"
        }
      ],
      "stateMutability": "view",
      "type": "function"
    },
    {
      "inputs": [
        {
          "internalType": "address",
          "name": "owner",
          "type": "address"
        },
        {
          "internalType": "address",
          "name": "spender",
          "type": "address"
        }
      ],
      "name": "allowance",
      "outputs": [
        {
          "internalType": "uint256",
          "name": "",
          "type": "uint256"
        }
      ],
      "stateMutability": "view",
      "type": "function"
    },
    {
      "inputs": [
        {
          "internalType": "address",
          "name": "spender",
          "type": "address"
        },
        {
          "internalType": "uint256",
          "name": "amount",
          "type": "uint256"
        }
      ],
      "name": "approve",
      "outputs": [
        {
          "internalType": "bool",
          "name": "",
          "type": "bool"
        }
      ],
      "stateMutability": "nonpayable",
      "type": "function"
    },
    {
      "inputs": [
        {
          "internalType": "address",
          "name": "account",
          "type": "address"
        }
      ],
      "name": "balanceOf",
      "outputs": [
        {
          "internalType": "uint256",
          "name": "",
          "type": "uint256"
        }
      ],
      "stateMutability": "view",
      "type": "function"
    },
    {
      "inputs": [
        {
          "internalType": "uint256",
          "name": "amount",
          "type": "uint256"
        }
      ],
      "name": "burn",
      "outputs": [],
      "stateMutability": "nonpayable",
      "type": "function"
    },
    {
      "inputs": [
        {
          "internalType": "address",
          "name": "account",
          "type": "address"
        },
        {
          "internalType": "uint256",
          "name": "amount",
          "type": "uint256"
        }
      ],
      "name": "burnFrom",
      "outputs": [],
      "stateMutability": "nonpayable",
      "type": "function"
    },
    {
      "inputs": [],
      "name": "decimals",
      "outputs": [
        {
          "internalType": "uint8",
          "name": "",
          "type": "uint8"
        }
      ],
      "stateMutability": "view",
      "type": "function"
    },
    {
      "inputs": [
        {
          "internalType": "address",
          "name": "spender",
          "type": "address"
        },
        {
          "internalType": "uint256",
          "name": "subtractedValue",
          "type": "uint256"
        }
      ],
      "name": "decreaseAllowance",
      "outputs": [
        {
          "internalType": "bool",
          "name": "",
          "type": "bool"
        }
      ],
      "stateMutability": "nonpayable",
      "type": "function"
    },
    {
      "inputs": [
        {
          "internalType": "address",
          "name": "from",
          "type": "address"
        },
        {
          "internalType": "address",
          "name": "to",
          "type": "address"
        },
        {
          "internalType": "uint256",
          "name": "amount",
          "type": "uint256"
        }
      ],
      "name": "forceTransfer",
      "outputs": [],
      "stateMutability": "nonpayable",
      "type": "function"
    },
    {
      "inputs": [],
      "name": "getControllerRole",
      "outputs": [
        {
          "internalType": "bytes32",
          "name": "",
          "type": "bytes32"
        }
      ],
      "stateMutability": "view",
      "type": "function"
    },
    {
      "inputs": [
        {
          "internalType": "bytes32",
          "name": "role",
          "type": "bytes32"
        }
      ],
      "name": "getRoleAdmin",
      "outputs": [
        {
          "internalType": "bytes32",
          "name": "",
          "type": "bytes32"
        }
      ],
      "stateMutability": "view",
      "type": "function"
    },
    {
      "inputs": [
        {
          "internalType": "bytes32",
          "name": "role",
          "type": "bytes32"
        },
        {
          "internalType": "uint256",
          "name": "index",
          "type": "uint256"
        }
      ],
      "name": "getRoleMember",
      "outputs": [
        {
          "internalType": "address",
          "name": "",
          "type": "address"
        }
      ],
      "stateMutability": "view",
      "type": "function"
    },
    {
      "inputs": [
        {
          "internalType": "bytes32",
          "name": "role",
          "type": "bytes32"
        }
      ],
      "name": "getRoleMemberCount",
      "outputs": [
        {
          "internalType": "uint256",
          "name": "",
          "type": "uint256"
        }
      ],
      "stateMutability": "view",
      "type": "function"
    },
    {
      "inputs": [],
      "name": "getSpenderRole",
      "outputs": [
        {
          "internalType": "bytes32",
          "name": "",
          "type": "bytes32"
        }
      ],
      "stateMutability": "view",
      "type": "function"
    },
    {
      "inputs": [
        {
          "internalType": "bytes32",
          "name": "role",
          "type": "bytes32"
        },
        {
          "internalType": "address",
          "name": "account",
          "type": "address"
        }
      ],
      "name": "grantRole",
      "outputs": [],
      "stateMutability": "nonpayable",
      "type": "function"
    },
    {
      "inputs": [
        {
          "internalType": "bytes32",
          "name": "role",
          "type": "bytes32"
        },
        {
          "internalType": "address",
          "name": "account",
          "type": "address"
        }
      ],
      "name": "hasRole",
      "outputs": [
        {
          "internalType": "bool",
          "name": "",
          "type": "bool"
        }
      ],
      "stateMutability": "view",
      "type": "function"
    },
    {
      "inputs": [
        {
          "internalType": "address",
          "name": "spender",
          "type": "address"
        },
        {
          "internalType": "uint256",
          "name": "addedValue",
          "type": "uint256"
        }
      ],
      "name": "increaseAllowance",
      "outputs": [
        {
          "internalType": "bool",
          "name": "",
          "type": "bool"
        }
      ],
      "stateMutability": "nonpayable",
      "type": "function"
    },
    {
      "inputs": [
        {
          "internalType": "address",
          "name": "to",
          "type": "address"
        },
        {
          "internalType": "uint256",
          "name": "amount",
          "type": "uint256"
        }
      ],
      "name": "mint",
      "outputs": [],
      "stateMutability": "nonpayable",
      "type": "function"
    },
    {
      "inputs": [],
      "name": "name",
      "outputs": [
        {
          "internalType": "string",
          "name": "",
          "type": "string"
        }
      ],
      "stateMutability": "view",
      "type": "function"
    },
    {
      "inputs": [],
      "name": "owner",
      "outputs": [
        {
          "internalType": "address",
          "name": "",
          "type": "address"
        }
      ],
      "stateMutability": "view",
      "type": "function"
    },
    {
      "inputs": [],
      "name": "pause",
      "outputs": [],
      "stateMutability": "nonpayable",
      "type": "function"
    },
    {
      "inputs": [],
      "name": "paused",
      "outputs": [
        {
          "internalType": "bool",
          "name": "",
          "type": "bool"
        }
      ],
      "stateMutability": "view",
      "type": "function"
    },
    {
      "inputs": [],
      "name": "renounceOwnership",
      "outputs": [],
      "stateMutability": "nonpayable",
      "type": "function"
    },
    {
      "inputs": [
        {
          "internalType": "bytes32",
          "name": "role",
          "type": "bytes32"
        },
        {
          "internalType": "address",
          "name": "account",
          "type": "address"
        }
      ],
      "name": "renounceRole",
      "outputs": [],
      "stateMutability": "nonpayable",
      "type": "function"
    },
    {
      "inputs": [
        {
          "internalType": "bytes32",
          "name": "role",
          "type": "bytes32"
        },
        {
          "internalType": "address",
          "name": "account",
          "type": "address"
        }
      ],
      "name": "revokeRole",
      "outputs": [],
      "stateMutability": "nonpayable",
      "type": "function"
    },
    {
      "inputs": [
        {
          "internalType": "bytes4",
          "name": "interfaceId",
          "type": "bytes4"
        }
      ],
      "name": "supportsInterface",
      "outputs": [
        {
          "internalType": "bool",
          "name": "",
          "type": "bool"
        }
      ],
      "stateMutability": "view",
      "type": "function"
    },
    {
      "inputs": [],
      "name": "symbol",
      "outputs": [
        {
          "internalType": "string",
          "name": "",
          "type": "string"
        }
      ],
      "stateMutability": "view",
      "type": "function"
    },
    {
      "inputs": [],
      "name": "totalSupply",
      "outputs": [
        {
          "internalType": "uint256",
          "name": "",
          "type": "uint256"
        }
      ],
      "stateMutability": "view",
      "type": "function"
    },
    {
      "inputs": [
        {
          "internalType": "address",
          "name": "recipient",
          "type": "address"
        },
        {
          "internalType": "uint256",
          "name": "amount",
          "type": "uint256"
        }
      ],
      "name": "transfer",
      "outputs": [
        {
          "internalType": "bool",
          "name": "",
          "type": "bool"
        }
      ],
      "stateMutability": "nonpayable",
      "type": "function"
    },
    {
      "inputs": [
        {
          "internalType": "address",
          "name": "sender",
          "type": "address"
        },
        {
          "internalType": "address",
          "name": "recipient",
          "type": "address"
        },
        {
          "internalType": "uint256",
          "name": "amount",
          "type": "uint256"
        }
      ],
      "name": "transferFrom",
      "outputs": [
        {
          "internalType": "bool",
          "name": "",
          "type": "bool"
        }
      ],
      "stateMutability": "nonpayable",
      "type": "function"
    },
    {
      "inputs": [
        {
          "internalType": "address",
          "name": "newOwner",
          "type": "address"
        }
      ],
      "name": "transferOwnership",
      "outputs": [],
      "stateMutability": "nonpayable",
      "type": "function"
    },
    {
      "inputs": [],
      "name": "unpause",
      "outputs": [],
      "stateMutability": "nonpayable",
      "type": "function"
    }
  ],
  "bytecode": "0x60806040523480156200001157600080fd5b506040516200231a3803806200231a8339810160408190526200003491620003dd565b81816200004133620000e7565b81516200005690600690602085019062000284565b5080516200006c90600790602084019062000284565b50506008805460ff1916905550620000876000335b62000137565b620000b37f7b765e0e932d348852a6f810bfa1ab891e259123f02db8cdcde614c5702233573362000081565b620000df7f7434c6f201a551bfd17336985361933e0c4935b520dac8a49d937b325f7d5c0a3362000081565b505062000497565b600080546001600160a01b038381166001600160a01b0319831681178455604051919092169283917f8be0079c531659141344cd1fd0a4f28419497f9722a3daafe3b4186f6b6457e09190a35050565b62000143828262000147565b5050565b6200015e82826200018a60201b62000d141760201c565b60008281526002602090815260409091206200018591839062000d9b62000212821b17901c565b505050565b60008281526001602090815260408083206001600160a01b038516845290915290205460ff16620001435760008281526001602081815260408084206001600160a01b0386168086529252808420805460ff19169093179092559051339285917f2f8788117e7eff1d82e926ec794901d17c78024a50270940304540a733656f0d9190a45050565b600062000229836001600160a01b03841662000232565b90505b92915050565b60008181526001830160205260408120546200027b575081546001818101845560008481526020808220909301849055845484825282860190935260409020919091556200022c565b5060006200022c565b828054620002929062000444565b90600052602060002090601f016020900481019282620002b6576000855562000301565b82601f10620002d157805160ff191683800117855562000301565b8280016001018555821562000301579182015b8281111562000301578251825591602001919060010190620002e4565b506200030f92915062000313565b5090565b5b808211156200030f576000815560010162000314565b600082601f8301126200033b578081fd5b81516001600160401b038082111562000358576200035862000481565b604051601f8301601f19908116603f0116810190828211818310171562000383576200038362000481565b816040528381526020925086838588010111156200039f578485fd5b8491505b83821015620003c25785820183015181830184015290820190620003a3565b83821115620003d357848385830101525b9695505050505050565b60008060408385031215620003f0578182fd5b82516001600160401b038082111562000407578384fd5b62000415868387016200032a565b935060208501519150808211156200042b578283fd5b506200043a858286016200032a565b9150509250929050565b600181811c908216806200045957607f821691505b602082108114156200047b57634e487b7160e01b600052602260045260246000fd5b50919050565b634e487b7160e01b600052604160045260246000fd5b611e7380620004a76000396000f3fe608060405234801561001057600080fd5b50600436106102265760003560e01c8063715018a61161012a578063a217fddf116100bd578063d547741f1161008c578063e731baed11610071578063e731baed146104fe578063efe9dcb714610524578063f2fde38b1461054a57610226565b8063d547741f146104b2578063dd62ed3e146104c557610226565b8063a217fddf14610471578063a457c2d714610479578063a9059cbb1461048c578063ca15c8731461049f57610226565b80638da5cb5b116100f95780638da5cb5b146103f85780639010d07c1461041d57806391d148541461043057806395d89b411461046957610226565b8063715018a6146103ae57806372c16a24146103b657806379cc6790146103dd5780638456cb59146103f057610226565b8063313ce567116101bd5780633f4ba83a1161018c57806342966c681161017157806342966c68146103675780635c975abb1461037a57806370a082311461038557610226565b80633f4ba83a1461034c57806340c10f191461035457610226565b8063313ce5671461030457806333bebb771461031357806336568abe14610326578063395093511461033957610226565b806318160ddd116101f957806318160ddd146102b057806323b872dd146102b8578063248a9ca3146102cb5780632f2ff15d146102ef57610226565b806301ffc9a71461022b57806306fdde0314610253578063092c5b3b14610268578063095ea7b31461029d575b600080fd5b61023e610239366004611c7f565b61055d565b60405190151581526020015b60405180910390f35b61025b6105a3565b60405161024a9190611d28565b61028f7f7b765e0e932d348852a6f810bfa1ab891e259123f02db8cdcde614c57022335781565b60405190815260200161024a565b61023e6102ab366004611bfb565b610635565b60055461028f565b61023e6102c6366004611bc0565b61064c565b61028f6102d9366004611c24565b6000908152600160208190526040909120015490565b6103026102fd366004611c3c565b610710565b005b6040516012815260200161024a565b610302610321366004611bc0565b61073d565b610302610334366004611c3c565b6107e4565b61023e610347366004611bfb565b610870565b6103026108ac565b610302610362366004611bfb565b610952565b610302610375366004611c24565b61095c565b60085460ff1661023e565b61028f610393366004611b74565b6001600160a01b031660009081526003602052604090205490565b610302610969565b61028f7f7434c6f201a551bfd17336985361933e0c4935b520dac8a49d937b325f7d5c0a81565b6103026103eb366004611bfb565b6109cd565b610302610a67565b6000546001600160a01b03165b6040516001600160a01b03909116815260200161024a565b61040561042b366004611c5e565b610b0b565b61023e61043e366004611c3c565b60009182526001602090815260408084206001600160a01b0393909316845291905290205460ff1690565b61025b610b2a565b61028f600081565b61023e610487366004611bfb565b610b39565b61023e61049a366004611bfb565b610bea565b61028f6104ad366004611c24565b610bf7565b6103026104c0366004611c3c565b610c0e565b61028f6104d3366004611b8e565b6001600160a01b03918216600090815260046020908152604080832093909416825291909152205490565b7f7434c6f201a551bfd17336985361933e0c4935b520dac8a49d937b325f7d5c0a61028f565b7f7b765e0e932d348852a6f810bfa1ab891e259123f02db8cdcde614c57022335761028f565b610302610558366004611b74565b610c35565b60006001600160e01b031982167f5a05180f00000000000000000000000000000000000000000000000000000000148061059b575061059b82610db0565b90505b919050565b6060600680546105b290611dec565b80601f01602080910402602001604051908101604052809291908181526020018280546105de90611dec565b801561062b5780601f106106005761010080835404028352916020019161062b565b820191906000526020600020905b81548152906001019060200180831161060e57829003601f168201915b5050505050905090565b6000610642338484610e17565b5060015b92915050565b6000610659848484610f6f565b6001600160a01b0384166000908152600460209081526040808320338452909152902054828110156106f85760405162461bcd60e51b815260206004820152602860248201527f45524332303a207472616e7366657220616d6f756e742065786365656473206160448201527f6c6c6f77616e636500000000000000000000000000000000000000000000000060648201526084015b60405180910390fd5b6107058533858403610e17565b506001949350505050565b6000828152600160208190526040909120015461072e81335b611193565b6107388383611213565b505050565b6107677f7434c6f201a551bfd17336985361933e0c4935b520dac8a49d937b325f7d5c0a3361043e565b6107d95760405162461bcd60e51b815260206004820152602e60248201527f4f6e6c79206120636f6e7472616374207370656e6465722063616e2063616c6c60448201527f20746869732066756e6374696f6e00000000000000000000000000000000000060648201526084016106ef565b610738838383610f6f565b6001600160a01b03811633146108625760405162461bcd60e51b815260206004820152602f60248201527f416363657373436f6e74726f6c3a2063616e206f6e6c792072656e6f756e636560448201527f20726f6c657320666f722073656c66000000000000000000000000000000000060648201526084016106ef565b61086c8282611235565b5050565b3360008181526004602090815260408083206001600160a01b038716845290915281205490916106429185906108a7908690611d5b565b610e17565b6108d67f7b765e0e932d348852a6f810bfa1ab891e259123f02db8cdcde614c5702233573361043e565b6109485760405162461bcd60e51b815260206004820152603160248201527f4f6e6c79206120636f6e747261637420636f6e74726f6c6c65722063616e206360448201527f616c6c20746869732066756e6374696f6e00000000000000000000000000000060648201526084016106ef565b610950611257565b565b61086c82826112f3565b61096633826113df565b50565b6000546001600160a01b031633146109c35760405162461bcd60e51b815260206004820181905260248201527f4f776e61626c653a2063616c6c6572206973206e6f7420746865206f776e657260448201526064016106ef565b6109506000611570565b60006109d983336104d3565b905081811015610a505760405162461bcd60e51b8152602060048201526024808201527f45524332303a206275726e20616d6f756e74206578636565647320616c6c6f7760448201527f616e63650000000000000000000000000000000000000000000000000000000060648201526084016106ef565b610a5d8333848403610e17565b61073883836113df565b610a917f7b765e0e932d348852a6f810bfa1ab891e259123f02db8cdcde614c5702233573361043e565b610b035760405162461bcd60e51b815260206004820152603160248201527f4f6e6c79206120636f6e747261637420636f6e74726f6c6c65722063616e206360448201527f616c6c20746869732066756e6374696f6e00000000000000000000000000000060648201526084016106ef565b6109506115d8565b6000828152600260205260408120610b239083611660565b9392505050565b6060600780546105b290611dec565b3360009081526004602090815260408083206001600160a01b038616845290915281205482811015610bd35760405162461bcd60e51b815260206004820152602560248201527f45524332303a2064656372656173656420616c6c6f77616e63652062656c6f7760448201527f207a65726f00000000000000000000000000000000000000000000000000000060648201526084016106ef565b610be03385858403610e17565b5060019392505050565b6000610642338484610f6f565b600081815260026020526040812061059b9061166c565b60008281526001602081905260409091200154610c2b8133610729565b6107388383611235565b6000546001600160a01b03163314610c8f5760405162461bcd60e51b815260206004820181905260248201527f4f776e61626c653a2063616c6c6572206973206e6f7420746865206f776e657260448201526064016106ef565b6001600160a01b038116610d0b5760405162461bcd60e51b815260206004820152602660248201527f4f776e61626c653a206e6577206f776e657220697320746865207a65726f206160448201527f646472657373000000000000000000000000000000000000000000000000000060648201526084016106ef565b61096681611570565b60008281526001602090815260408083206001600160a01b038516845290915290205460ff1661086c5760008281526001602081815260408084206001600160a01b0386168086529252808420805460ff19169093179092559051339285917f2f8788117e7eff1d82e926ec794901d17c78024a50270940304540a733656f0d9190a45050565b6000610b23836001600160a01b038416611676565b60006001600160e01b031982167f7965db0b00000000000000000000000000000000000000000000000000000000148061059b57507f01ffc9a7000000000000000000000000000000000000000000000000000000006001600160e01b031983161461059b565b6001600160a01b038316610e925760405162461bcd60e51b8152602060048201526024808201527f45524332303a20617070726f76652066726f6d20746865207a65726f2061646460448201527f726573730000000000000000000000000000000000000000000000000000000060648201526084016106ef565b6001600160a01b038216610f0e5760405162461bcd60e51b815260206004820152602260248201527f45524332303a20617070726f766520746f20746865207a65726f20616464726560448201527f737300000000000000000000000000000000000000000000000000000000000060648201526084016106ef565b6001600160a01b0383811660008181526004602090815260408083209487168084529482529182902085905590518481527f8c5be1e5ebec7d5bd14f71427d1e84f3dd0314c0f7b2291e5b200ac8c7c3b925910160405180910390a3505050565b6001600160a01b038316610feb5760405162461bcd60e51b815260206004820152602560248201527f45524332303a207472616e736665722066726f6d20746865207a65726f20616460448201527f647265737300000000000000000000000000000000000000000000000000000060648201526084016106ef565b6001600160a01b0382166110675760405162461bcd60e51b815260206004820152602360248201527f45524332303a207472616e7366657220746f20746865207a65726f206164647260448201527f657373000000000000000000000000000000000000000000000000000000000060648201526084016106ef565b6110728383836116c5565b6001600160a01b038316600090815260036020526040902054818110156111015760405162461bcd60e51b815260206004820152602660248201527f45524332303a207472616e7366657220616d6f756e742065786365656473206260448201527f616c616e6365000000000000000000000000000000000000000000000000000060648201526084016106ef565b6001600160a01b03808516600090815260036020526040808220858503905591851681529081208054849290611138908490611d5b565b92505081905550826001600160a01b0316846001600160a01b03167fddf252ad1be2c89b69c2b068fc378daa952ba7f163c4a11628f55a4df523b3ef8460405161118491815260200190565b60405180910390a35b50505050565b60008281526001602090815260408083206001600160a01b038516845290915290205460ff1661086c576111d1816001600160a01b031660146116d0565b6111dc8360206116d0565b6040516020016111ed929190611ca7565b60408051601f198184030181529082905262461bcd60e51b82526106ef91600401611d28565b61121d8282610d14565b60008281526002602052604090206107389082610d9b565b61123f82826118f7565b6000828152600260205260409020610738908261197a565b60085460ff166112a95760405162461bcd60e51b815260206004820152601460248201527f5061757361626c653a206e6f742070617573656400000000000000000000000060448201526064016106ef565b6008805460ff191690557f5db9ee0a495bf2e6ff9c91a7834c1ba4fdd244a5e8aa4e537bd38aeae4b073aa335b6040516001600160a01b03909116815260200160405180910390a1565b6001600160a01b0382166113495760405162461bcd60e51b815260206004820152601f60248201527f45524332303a206d696e7420746f20746865207a65726f20616464726573730060448201526064016106ef565b611355600083836116c5565b80600560008282546113679190611d5b565b90915550506001600160a01b03821660009081526003602052604081208054839290611394908490611d5b565b90915550506040518181526001600160a01b038316906000907fddf252ad1be2c89b69c2b068fc378daa952ba7f163c4a11628f55a4df523b3ef9060200160405180910390a361086c565b6001600160a01b03821661145b5760405162461bcd60e51b815260206004820152602160248201527f45524332303a206275726e2066726f6d20746865207a65726f2061646472657360448201527f730000000000000000000000000000000000000000000000000000000000000060648201526084016106ef565b611467826000836116c5565b6001600160a01b038216600090815260036020526040902054818110156114f65760405162461bcd60e51b815260206004820152602260248201527f45524332303a206275726e20616d6f756e7420657863656564732062616c616e60448201527f636500000000000000000000000000000000000000000000000000000000000060648201526084016106ef565b6001600160a01b0383166000908152600360205260408120838303905560058054849290611525908490611d92565b90915550506040518281526000906001600160a01b038516907fddf252ad1be2c89b69c2b068fc378daa952ba7f163c4a11628f55a4df523b3ef9060200160405180910390a3610738565b600080546001600160a01b038381167fffffffffffffffffffffffff0000000000000000000000000000000000000000831681178455604051919092169283917f8be0079c531659141344cd1fd0a4f28419497f9722a3daafe3b4186f6b6457e09190a35050565b60085460ff161561162b5760405162461bcd60e51b815260206004820152601060248201527f5061757361626c653a207061757365640000000000000000000000000000000060448201526064016106ef565b6008805460ff191660011790557f62e78cea01bee320cd4e420270b5ea74000d11b0c9f74754ebdbfc544b05a2586112d63390565b6000610b23838361198f565b600061059b825490565b60008181526001830160205260408120546116bd57508154600181810184556000848152602080822090930184905584548482528286019093526040902091909155610646565b506000610646565b6107388383836119c7565b606060006116df836002611d73565b6116ea906002611d5b565b67ffffffffffffffff81111561171057634e487b7160e01b600052604160045260246000fd5b6040519080825280601f01601f19166020018201604052801561173a576020820181803683370190505b5090507f30000000000000000000000000000000000000000000000000000000000000008160008151811061177f57634e487b7160e01b600052603260045260246000fd5b60200101906001600160f81b031916908160001a9053507f7800000000000000000000000000000000000000000000000000000000000000816001815181106117d857634e487b7160e01b600052603260045260246000fd5b60200101906001600160f81b031916908160001a90535060006117fc846002611d73565b611807906001611d5b565b90505b60018111156118a8577f303132333435363738396162636465660000000000000000000000000000000085600f166010811061185657634e487b7160e01b600052603260045260246000fd5b1a60f81b82828151811061187a57634e487b7160e01b600052603260045260246000fd5b60200101906001600160f81b031916908160001a90535060049490941c936118a181611dd5565b905061180a565b508315610b235760405162461bcd60e51b815260206004820181905260248201527f537472696e67733a20686578206c656e67746820696e73756666696369656e7460448201526064016106ef565b60008281526001602090815260408083206001600160a01b038516845290915290205460ff161561086c5760008281526001602090815260408083206001600160a01b0385168085529252808320805460ff1916905551339285917ff6391f5c32d9c69d2a47ea670b442974b53935d1edc7fd64eb21e047a839171b9190a45050565b6000610b23836001600160a01b038416611a40565b60008260000182815481106119b457634e487b7160e01b600052603260045260246000fd5b9060005260206000200154905092915050565b60085460ff16156107385760405162461bcd60e51b815260206004820152602a60248201527f45524332305061757361626c653a20746f6b656e207472616e7366657220776860448201527f696c65207061757365640000000000000000000000000000000000000000000060648201526084016106ef565b60008181526001830160205260408120548015611b53576000611a64600183611d92565b8554909150600090611a7890600190611d92565b9050818114611af9576000866000018281548110611aa657634e487b7160e01b600052603260045260246000fd5b9060005260206000200154905080876000018481548110611ad757634e487b7160e01b600052603260045260246000fd5b6000918252602080832090910192909255918252600188019052604090208390555b8554869080611b1857634e487b7160e01b600052603160045260246000fd5b600190038181906000526020600020016000905590558560010160008681526020019081526020016000206000905560019350505050610646565b6000915050610646565b80356001600160a01b038116811461059e57600080fd5b600060208284031215611b85578081fd5b610b2382611b5d565b60008060408385031215611ba0578081fd5b611ba983611b5d565b9150611bb760208401611b5d565b90509250929050565b600080600060608486031215611bd4578081fd5b611bdd84611b5d565b9250611beb60208501611b5d565b9150604084013590509250925092565b60008060408385031215611c0d578182fd5b611c1683611b5d565b946020939093013593505050565b600060208284031215611c35578081fd5b5035919050565b60008060408385031215611c4e578182fd5b82359150611bb760208401611b5d565b60008060408385031215611c70578182fd5b50508035926020909101359150565b600060208284031215611c90578081fd5b81356001600160e01b031981168114610b23578182fd5b60007f416363657373436f6e74726f6c3a206163636f756e742000000000000000000082528351611cdf816017850160208801611da9565b7f206973206d697373696e6720726f6c65200000000000000000000000000000006017918401918201528351611d1c816028840160208801611da9565b01602801949350505050565b6000602082528251806020840152611d47816040850160208701611da9565b601f01601f19169190910160400192915050565b60008219821115611d6e57611d6e611e27565b500190565b6000816000190483118215151615611d8d57611d8d611e27565b500290565b600082821015611da457611da4611e27565b500390565b60005b83811015611dc4578181015183820152602001611dac565b8381111561118d5750506000910152565b600081611de457611de4611e27565b506000190190565b600181811c90821680611e0057607f821691505b60208210811415611e2157634e487b7160e01b600052602260045260246000fd5b50919050565b634e487b7160e01b600052601160045260246000fdfea264697066735822122025a7a8c1ae6a1dc15ac18ac17fecd80c282e8beaf3f741e877784cbdddf7bd9564736f6c63430008030033",
  "linkReferences": {},
  "deployedLinkReferences": {}
}